:100000000C944E190C946B190C946B190C946B197D
:100010000C946B190C946B190C946B190C946B1950
:100020000C946B190C946B190C946B190C946B1940
:100030000C946B190C946B190C946B190C946B1930
:100040000C944C210C946B190C946B190C946B1937
:100050000C946B190C946B190C946B190C946B1910
:100060000C946B190C946B199403950396039703E6
:10007000980399039A039B039C039D039E039F038C
:10008000A103A203A303A403A503A603A703A90333
:10009000AA03AB03AC03AD03AF03B003B103B203D8
:1000A000B403B503B603B703B903BA03BB03BD0377
:1000B000BE03BF03C103C203C403C503C603C80311
:1000C000C903CB03CC03CD03CF03D003D203D303A7
:1000D000D503D603D803D903DB03DC03DE03DF0338
:1000E000E103E203E403E603E703E903EA03EC03C5
:1000F000ED03EF03F103F203F403F503F703F90350
:10010000FA03FC03FD03FF030000010003000400E9
:100110000600070009000B000C000E000F00110084
:10012000130014001600170019001A001C001E000E
:100130001F002100220024002500270028002A009B
:100140002B002D002E00300031003300340035002C
:10015000370038003A003B003C003E003F004100C1
:100160004200430045004600470049004A004B005A
:100170004C004E004F0050005100530054005500F9
:100180005600570059005A005B005C005D005E009D
:100190005F00610062006300640065006600670044
:1001A000680069006A006B0000000200050008009A
:1001B0000A000D0010001300150018001B001E009F
:1001C00020002300260028002B002E0031003300E1
:1001D000360039003C003E00410044004600490022
:1001E0004C004F005100540057005A005C005F0063
:1001F0006200650067006A006D006F0072007500A4
:1002000078007A007D0080008300850088008B00E4
:100210008D0090009300960098009B009E00A10026
:10022000A300A600A900AC00AE00B100B400B60067
:10023000B900BC00BF00C100C400C700CA00CC00A8
:10024000CF00D200D400D700DA00DD00DF00E200EA
:10025000E500E800EA00ED00F000F300F500F8002A
:10026000FB00FD0000010301060108010B010E0166
:1002700011011301160119011B011E0121012401A5
:10028000260129012C012F013101340137013A01E6
:100290003C013F014201440147014A014D014F0128
:1002A0005201550158015A015D0160016201650169
:1002B00068016B016D0170017301760178017B01AA
:1002C0007E0181018301860189018B018E019101EB
:1002D0009401960199019C019F01A101A401A7012C
:1002E000A901AC01AF01B201B401B701BA01BD016E
:1002F000BF01C201C501C801CA01CD01D001D201AF
:10030000D501D801DB01DD01E001E301E601E801EF
:10031000EB01EE01F001F301F601F901FB01FE0131
:1003200001020402060209020C020F021102140269
:10033000170219021C021F022202240227022A02AB
:100340002D022F023202350237023A023D024002EC
:100350004202450248024B024D025002530256022D
:1003600058025B025E0260026302660269026B026F
:100370006E0271027402760279027C027E028102B0
:100380008402870289028C028F02920294029702F1
:100390009A029D029F02A202A502A702AA02AD0232
:1003A000B002B202B502B8020000517FA27EF37D16
:1003B000447D967CE77B387B897ADB792C797D7864
:1003C000CE7720777176C27513756574B67307732F
:1003D0005872A971FB704C709D6FEE6E406E916DFE
:1003E000E26C336C856BD66A276A7869CA681B68C9
:1003F0006C67BD660F666065B16402645363A56295
:10040000F66147619860EA5F3B5F8C5EDD5D2F5D62
:10041000805CD15B225B745AC55916596758B9572D
:100420000A575B56AC55FD544F54A053F1524252FB
:100430009451E5503650874FD94E2A4E7B4DCC4CC7
:100440001E4C6F4BC04A114A6249B4480548564792
:10045000A746F9454A459B44EC433E438F42E04161
:1004600031418340D43F253F763EC83D193D6A3C2B
:10047000BB3B0C3B5E3AAF3900395138A337F436F9
:1004800045369635E83439348A33DB322D327E31C5
:10049000CF302030722FC32E142E652DB62C082C91
:1004A000592BAA2AFB294D299E28EF27402792265F
:1004B000E32534258524D72328237922CA211B212B
:1004C0006D20BE1F0F1F601EB21D031D541CA51BF7
:1004D000F71A481A9919EA183C188D17DE162F16C4
:1004E0008115D21423147413C51217126811B91090
:1004F0000A105C0FAD0EFE0D4F0DA10CF20B430B5D
:10050000940AE60937098808D9072B077C06CD0528
:100510001E056F04C10312036302B40106015700F4
:10052000A9FFFAFE4CFE9DFDEEFC3FFC91FBE2FABA
:1005300033FA84F9D5F827F878F7C9F61AF66CF586
:10054000BDF40EF45FF3B1F202F253F1A4F0F6EF52
:1005500047EF98EEE9ED3BED8CECDDEB2EEB7FEA1F
:10056000D1E922E973E8C4E716E767E6B8E509E5EB
:100570005BE4ACE3FDE24EE2A0E1F1E042E093DFB8
:10058000E5DE36DE87DDD8DC29DC7BDBCCDA1DDA84
:100590006ED9C0D811D862D7B3D605D656D5A7D450
:1005A000F8D34AD39BD2ECD1FE015602AD0204032C
:1005B0005C03B3030A046204B90411056805BF05AE
:1005C00017066E06C5061D077407CC0723087A08B0
:1005D000D20829098109D8092F0A870ADE0A350BB2
:1005E0008D0BE40B3C0C930CEA0C420D990DF00DB5
:1005F000480E9F0EF70E4E0FA50FFD0F5410AC10B6
:1006000003115A11B21109126012B8120F136713B5
:10061000BE1315146D14C4141B157315CA152216B8
:100620007916D01628177F17D7172E188518DD18BA
:1006300034198B19E3193A1A921AE91A401B981BBC
:10064000EF1B461C9E1CF51C4D1DA41DFB1D531EBF
:10065000AA1E021F591FB01F08205F20B6200E21BE
:100660006521BD2114226B22C3221A237223C923C0
:1006700020247824CF2426257E25D5252D268426C2
:10068000DB2633278A27E12739289028E8283F29C5
:100690009629EE29452A9D2AF42A4B2BA32BFA2BC7
:1006A000512CA92C002D582DAF2D062E5E2EB52EC7
:1006B0000C2F642FBB2F13306A30C13019317031C9
:1006C000C8311F327632CE3225337C33D4332B34CB
:1006D0008334DA3431358935E03537368F36E636CE
:1006E0003E379537EC3744389B38F3384A39A139CF
:1006F000F939503AA73AFF3A563BAE3B053C5C3CD1
:10070000B43C0B3D623DBA3D113E693EC03E173FD1
:100710006F3FC63F1E407540CC4024417B41D241D3
:100720002A428142D94230438743DF4336448D44D5
:10073000E5443C459445EB4542469A46F1464947D7
:10074000A047F7474F48A648FD485549AC49044AD9
:100750005B4AB24A0A4B614BB94B104C674CBF4CD9
:10076000164D6D4DC54D1C4E744ECB4E224F7A4FDB
:10077000D14F28508050D7502F518651DD513552DE
:100780008C52E4523B539253EA5341549854F054E0
:1007900047559F55F6554D56A556FC565357AB57E2
:1007A00002585A58B1580859FE01090214021F0292
:1007B0002A02350240024B02560260026B027602A8
:1007C00081028C029702A202AD02B802C302CE02DD
:1007D000D902E402EE02F90204030F031A0325030F
:1007E00030033B03460351035C03670372037C033E
:1007F000870392039D03A803B303BE03C903D40375
:10080000DF03EA03F50300040A04150420042B04A3
:10081000360441044C04570462046D0478048304D4
:100820008D049804A304AE04B904C404CF04DA040C
:10083000E504F004FB04060511051B05260531053A
:100840003C05470552055D05680573057E0589056C
:1008500094059F05A905B405BF05CA05D505E005A2
:10086000EB05F60501060C06170622062D063706CF
:1008700042064D06580663066E06790684068F0604
:100880009A06A506B006BB06C506D006DB06E60638
:10089000F106FC06070712071D07280733073E0766
:1008A000490753075E07690774077F078A0795079B
:1008B000A007AB07B607C107CC07D707E107EC07CE
:1008C000F70702080D08180823082E0839084408FD
:1008D0004F085A0865086F087A08850890089B0831
:1008E000A608B108BC08C708D208DD08E808F30864
:1008F000FD08080913091E09290934093F094A0995
:10090000550960096B09760981098B099609A109C6
:10091000AC09B709C209CD09D809E309EE09F909FB
:10092000040A0F0A190A240A2F0A3A0A450A500A29
:100930005B0A660A710A7C0A870A920A9D0AA70A5C
:10094000B20ABD0AC80AD30ADE0AE90AF40AFF0A93
:100950000A0B150B200B2B0B350B400B4B0B560BBF
:10096000610B6C0B770B820B8D0B980BA30BAE0BF3
:10097000B90BC30BCE0BD90BE40BEF0BFA0B050C29
:10098000100C1B0C260C310C3C0C460C510C5C0C56
:10099000670C720C7D0C880C930C9E0CA90CB40C8B
:1009A000BF0CCA0CD40CDF0C4B3E352E2925221F60
:1009B0001C1A1917161413121111100F0F0E0D0D0A
:1009C0000C0C0C0B0B0B0A0A0A0909090908080888
:1009D00008080707070707070706060606060606AC
:1009E00006060505050505050505050505050504B6
:1009F00004040404040404040404040404040404B7
:100A000004030303030303030303030303030303B5
:100A100003030303030303030303030303030303A6
:100A200003020202020202020202020202020202A5
:100A30000202020202020202020202020202020296
:100A40000202020202020202020202020202020286
:100A50000202020202020202020202020202020177
:100A60000101010101010101010101010101010176
:100A70000101010101010101010101010101010166
:100A80000101010101010101010101010101010156
:100A90000101010101010101010101010101010146
:100AA0000101010101010101413F3E3D3C3A39385C
:100AB0003736353433323231302F2E2E2D2C2C2B2D
:100AC0002A2A2929282827262625252524242323C0
:100AD00022222221212020201F1F1F1E1E1E1E1D1C
:100AE0001D1D1C1C1C1C1B1B1B1B1A1A1A1A191956
:100AF000191919181818181817171717171616167E
:100B00001616161515151515151414141414141499
:100B100014131313131313131212121212121212AC
:100B200012111111111111111111111010101010B9
:100B30001010101010100F0F0F0F0F0F0F0F0F0FBF
:100B40000F0F0F0E0E0E0E0E0E0E0E0E0E0E0E0EC2
:100B50000E0D0D0D0D0D0D0D0D0D0D0D0D0D0D0DC4
:100B60000D0C0C0C0C0C0C0C0C0C0C0C0C0C0C0CC4
:100B70000C0C0C0C0C0B0B0B0B0B0B0B0B0B0B0BC0
:100B80000B0B0B0B0B0B0B0B0B0B0B0A0A0A0A0ABA
:100B90000A0A0A0A0A0A0A0A0A0A0A0A0A0A0A0AB5
:100BA0000A0A0A0A0A0A0A0900FFFFFFFFFFFFFFFD
:100BB000FFFFFFFFFFFFFFFEFEFEFEFEFEFDFDFD51
:100BC000FDFCFCFCFCFBFBFBFBFAFAFAF9F9F9F87B
:100BD000F8F7F7F7F6F6F5F5F4F4F4F3F3F2F2F1CB
:100BE000F1F0EFEFEEEEEDEDECEBEBEAEAE9E8E841
:100BF000E7E6E6E5E4E3E3E2E1E1E0DFDEDDDDDCDC
:100C0000DBDAD9D9D8D7D6D5D4D3D3D2D1D0CFCE99
:100C1000CDCCCBCAC9C8C7C6C5C4C3C2C1C0BFBE7C
:100C2000BDBCBBBAB9B8B7B6B5B3B2B1B0AFAEAD73
:100C3000ABAAA9A8A7A6A4A3A2A19F9E9D9C9B998D
:100C4000989795949392908F8E8C8B8A88878684C0
:100C50008382807F7E7C7B7A787775747371706E07
:100C60006D6C6A696766646361605F5D5C5A595761
:100C700056545351504E4D4B4A4847454442413FCC
:100C80003E3C3B393836353331302E2D2B2A282740
:100C9000252422201F1D1C1A1917151412110F0EBE
:100CA0000C0A090706040301000103040607090AE8
:100CB0000C0E0F1112141517191A1C1D1F202224B7
:100CC0002527282A2B2D2E303133353638393B3C19
:100CD0003E3F4142444547484A4B4D4E5051535484
:100CE0005657595A5C5D5F606163646667696A6CF8
:100CF0006D6E707173747577787A7B7C7E7F80827D
:100D000083848687888A8B8C8E8F90929394959714
:100D100098999B9C9D9E9FA1A2A3A4A6A7A8A9AABF
:100D2000ABADAEAFB0B1B2B3B5B6B7B8B9BABBBC84
:100D3000BDBEBFC0C1C2C3C4C5C6C7C8C9CACBCC6B
:100D4000CDCECFD0D1D2D3D3D4D5D6D7D8D9D9DA66
:100D5000DBDCDDDDDEDFE0E1E1E2E3E3E4E5E6E686
:100D6000E7E8E8E9EAEAEBEBECEDEDEEEEEFEFF0C9
:100D7000F1F1F2F2F3F3F4F4F4F5F5F6F6F7F7F730
:100D8000F8F8F9F9F9FAFAFAFBFBFBFBFCFCFCFCBE
:100D9000FDFDFDFDFEFEFEFEFEFEFFFFFFFFFFFF71
:100DA000FFFFFFFFFFFFFFFF0000F8A27B5151365E
:100DB000BC289520261B44175A1417124610CB0E38
:100DC0008E0D820C9C0BD50A270A8D09040989080F
:100DD0001B08B7075C070907BD0677063706FB0542
:100DE000C3058F055E0531050605DE04B9049504CB
:100DF0007404540435041904FE03E403CB03B30361
:100E00009D03870372035E034B0339032803170313
:100E10000603F702E802D902CB02BD02B002A30228
:100E200097028B02800274026A025F0255024B0233
:100E3000410238022E0225021D0214020C02040295
:100E4000FC01F401ED01E601DE01D701D101CA0187
:100E5000C301BD01B701B101AB01A5019F0199011A
:100E600094018E01890184017F017A01750170016D
:100E70006B01660162015D015901540150014C0191
:100E8000480143013F013B013701340130012C018E
:100E90002801250121011D011A011601130110016C
:100EA0000C010901060103010001FC00F900F60034
:100EB000F300F000ED00EA00E800E500E200DF00EA
:100EC000DC00DA00D700D400D200CF00CC00CA008A
:100ED000C700C500C200C000BD00BB00B900B6001D
:100EE000B400B100AF00AD00AB00A800A600A400A4
:100EF000A2009F009D009B00990097009500930021
:100F000091008E008C008A00880086008400820098
:100F100080007E007C007B00790077007500730004
:100F200071006F006D006B006A006800660064006D
:100F3000620060005F005D005B00590058005600D1
:100F40005400520051004F004D004B004A00480031
:100F5000460045004300410040003E003C003B008D
:100F60003900370036003400320031002F002E00E7
:100F70002C002A002900270025002400220021003F
:100F80001F001D001C001A00190017001600140095
:100F9000120011000F000E000C000B0009000700EA
:100FA000060004000300010000000100030004002B
:100FB0000600070009000B000C000E000F001100D6
:100FC000120014001600170019001A001C001D0062
:100FD0001F002100220024002500270029002A00EC
:100FE0002C002E002F003100320034003600370074
:100FF00039003B003C003E004000410043004500FA
:10100000460048004A004B004D004F00510052007E
:1010100054005600580059005B005D005F006000FE
:1010200062006400660068006A006B006D006F007B
:10103000710073007500770079007B007C007E00F2
:10104000800082008400860088008A008C008E0068
:10105000910093009500970099009B009D009F00D0
:10106000A200A400A600A800AB00AD00AF00B10034
:10107000B400B600B900BB00BD00C000C200C5008E
:10108000C700CA00CC00CF00D200D400D700DA00DD
:10109000DC00DF00E200E500E800EA00ED00F0001F
:1010A000F300F600F900FC00FF000301060109014E
:1010B0000C011001130116011A011D012101250166
:1010C00028012C013001340137013B013F0143016C
:1010D00048014C015001540159015D016201660152
:1010E0006B01700175017A017F01840189018E0114
:1010F000940199019F01A501AB01B101B701BD01A7
:10110000C301CA01D101D701DE01E601ED01F401FD
:10111000FC0104020C0214021D0225022E023802F8
:1011200041024B0255025F026A02740280028B0286
:101130009702A302B002BD02CB02D902E802F70275
:1011400006031703280339034B035E037203870367
:101150009D03B303CB03E403FE03190435045404D5
:1011600074049504B904DE04060531055E058F0597
:10117000C305FB0537067706BD0609075C07B707F9
:101180001B08890804098D09270AD50A9C0B820CC3
:101190008E0DCB0E461017125A144417261B95209D
:1011A000BC2851367B51F8A2008000007ABFFF00B6
:1011B00038A0084C4104240C008A025C81C4060C4F
:1011C00000D2100C4C90003C23A4040C00C1880CED
:1011D000309C387C0300000C1FFEFFFC0000000068
:1011E00000000000000000000000000000000000FF
:1011F00000000000000000000000000000000000EF
:1012000000000000000000000000000000000000DE
:1012100000000000000000000000000000000000CE
:1012200000000000000000000901800A118064260F
:1012300001043A8155143601882A040000007F2BEE
:10124000040000009F138002298064452945294538
:10125000294529452945294529452945294529451E
:10126000294529452945294529452945294529450E
:1012700029452945294529452945294529452945FE
:1012800029452945294529452945294529452945EE
:1012900029452945294529452945294529452945DE
:1012A00029452945294529452945294529452945CE
:1012B00029452945294529452945294529452945BE
:1012C00029452945294529452945298A528A528A8D
:1012D000528A528A528A528A528A528A528A52496F
:1012E0004ADBDEDBDEDBDEDBDEDBDEDBDEDBDEDBCA
:1012F000DEDBDEDBDEDBDEDBDEDBDEDBDEDBDEDB26
:10130000DE0421C739518C55AD18C69AD69AD69AA3
:10131000D69AD69AD69AD618C618C655AD518C8A82
:10132000520421494A494A494A494A494A494A498B
:101330004A494A494A494A8A528A528A528A528AB0
:10134000528A528A528A528A528A528A528A528ABD
:10135000528A528A528A528A528A528A528A5249EE
:101360004ADBDE9AD69AD69AD618C69AD69AD69AD2
:10137000D69AD69AD69AD618C69AD69AD69AD651C8
:101380008C0421C739518C18C696B5518C55AD5176
:101390008C518C518C518C518C518C55AD8A52C7CB
:1013A000390421C7398E73518C518C518C518C5119
:1013B0008C518CCF7B8E730C63494A494A494A4908
:1013C0004A494A494A494A494A494A518C518C51E9
:1013D0008C518C518C518C518C518C04218A5249E6
:1013E0004ADBDE9AD618C696B59AD696B59AD6181E
:1013F000C696B59AD618C618C696B59AD6518C0C0C
:10140000630421C73955ADDBDE55AD518C55AD5167
:101410008C55AD518C55AD518C55AD518C8A52C700
:10142000390421C739518CDBDEDBDEDBDEDBDEDBC2
:10143000DEDBDE18C696B555AD518C518C518C5102
:101440008C518C518C518C518C518C9AD6DBDE9AFC
:10145000D69AD696B555AD518C518C04218A5249F5
:101460004ADBDE9AD655AD55AD55AD55AD518C55CF
:10147000AD55AD55AD55ADD39C55AD55ADCF7B8A72
:10148000520421C739518C18C6518C518C518C553E
:10149000AD55AD55AD55AD518C518C8E738A52C73B
:1014A000390421C739518CDBDEDBDE18C618C618BB
:1014B000C69AD6DBDEDBDEDBDEDBDEDBDE9AD69A4F
:1014C000D69AD69AD69AD69AD69AD655AD55AD55BD
:1014D000AD55AD55AD55ADCF7B8E7304218A5249C4
:1014E0004A5DEF18C6D39C55AD55AD55AD55AD55BC
:1014F000AD55ADD39C55AD518C55AD55AD8E738A60
:10150000520421C739494A55AD518C55AD55AD519D
:101510008C518C55AD518C55AD8E738A528A52C701
:10152000390421C739518CDBDE96B555AD518C5548
:10153000AD518C55AD55AD55AD518C518C55AD510E
:101540008C55AD518C55AD518CD39C96B5D39C55D3
:10155000ADD39C55AD518CCF7B8E730421494A4944
:101560004A5DEF9AD655AD518C55ADD39C55AD51D2
:101570008CD39CD39CD39C518CD39C55AD518C8ADD
:10158000520421C739494ACF7B518C518C55AD51FA
:101590008C55AD55AD518C55AD8E73C739C739C714
:1015A000390421C739518CDBDE96B5518C55AD51CC
:1015B0008CD39C518C518C518C55AD518C518CD30A
:1015C0009CD39C55ADD39C518C55AD96B596B5CF5B
:1015D0007B96B5518CD39C0C638A520421C7394940
:1015E0004A5DEF9AD6518CD39C518C55AD55AD5573
:1015F000AD518CCF7B518CD39C55AD518C0C638AF3
:10160000520421C739494A494A518C55AD55AD5507
:10161000AD518C518C518C55AD8E73C739C739C7BC
:10162000394529C739518CDBDE96B555AD518CD380
:101630009CCF7B55ADD39CCF7B518C55AD518C55F8
:10164000AD55AD518CCF7B55ADD39CD39C55AD558D
:10165000ADD39CD39C8E73494A494A0421452949FC
:101660004A18C618C655ADD39C55AD518C55AD51D1
:101670008CD39C518CD39C518C518C55AD8E738ADC
:101680005204210421494A8A52494ACF7BC739C7AB
:1016900039C739C739C739C739C739C739C739040D
:1016A000214529C739CF7BDBDEDBDE518C55AD51BF
:1016B0008CCF7BD39CCF7BD39C518C55AD518CD39D
:1016C0009CCF7B55AD55ADCF7B518C518C518C51FE
:1016D0008C518C8E738A52494A494A0421452949C2
:1016E0004A55AD5DEF55AD55AD55AD518C518CD3CF
:1016F0009C518C518C518C518C55AD518C8A52CF50
:101700007B45290421C739494AC739C739C739C771
:1017100039C739C739C739C739C739042104210442
:1017200021494A494A494A18C69AD6518C518C5186
:101730008CD39CD39CD39CD39C518C518C55AD5154
:101740008C55AD55AD518C55AD518C8E738E738EBD
:10175000738E738A52494AC739C7390421452949CA
:101760004A518CDBDE518C55AD518CD39CCF7B51D3
:101770008C518C55AD518C55AD518C55AD8E738AB5
:101780005245290421C739494AC739452945290401
:101790002104210421042104214529452945294505
:1017A00029494A8A52494A18C696B5518C55AD51B5
:1017B0008C55AD518C518C518C8E738E730C630C87
:1017C000630C630C630C630C630C638A528A52498A
:1017D0004A494A494A04210421042104214529494E
:1017E0004A8E73DBDE55AD518CD39CCF7BCF7BCF44
:1017F0007B55ADD39C518C518CCF7B518C8E730C0F
:1018000063C7390421C739494A494A494A494A8E76
:1018100073CF7B518C55AD55AD55AD55ADD39C8E29
:1018200073C7398A52494A96B5518C8E738E730CA0
:10183000630C630C638A528A528A528A52494A491B
:101840004A494A494A494A494A494A042104210421
:1018500021042104214529452945294529C7398ADB
:1018600052494ADBDE9AD6518C518C518CD39CD391
:101870009C518C518C55ADCF7B518C55AD518C8A80
:1018800052C7390421C739494A8E7355AD55ADDB6E
:10189000DEDBDE5DEFDBDE9AD69AD6D39C8E738AD2
:1018A0005204218A52494A518C8E730C630C638A0C
:1018B00052494A494A494AC739C739C739C739C756
:1018C0003945294529452945294529452945294598
:1018D00029452945294529452945294529C7398AC1
:1018E00052494A55AD9AD6518C55AD518CCF7B514A
:1018F0008C55AD518C518CD39C518C518C8E738AEC
:1019000052C73904214529C73955AD18C6DBDE9ABF
:10191000D696B5518C55AD518C55AD518C8E73C743
:10192000390421C739C739C739C739C739C739C792
:1019300039C739C739C739C7394529452904210469
:101940002104210421042104210421C739C739C7F6
:1019500039C739C739C739C739C739C739C7398AC4
:1019600052494A518C9AD655AD518C55ADD39C51A4
:101970008CCF7B518CCF7B518C55AD518C8A528A48
:1019800052C73904214529494A55ADDBDE18C655F1
:10199000AD518C518C518C518C518C518C8A52C7C9
:1019A000390421C73945294529452945294529456E
:1019B000294529452945294529C739C739C739C77F
:1019C00039C739C739C739C739C7398A52494AC7A8
:1019D00039C739C739C739C739C739C739C7398A44
:1019E00052494A8E7318C6518C55ADD39C518C55B3
:1019F000ADD39C55AD518C55AD518C55AD8A528EA1
:101A000073494A04214529494A55AD5DEF55AD5109
:101A10008C518C55AD518C55AD518C55AD8A52C7FA
:101A2000390421C739494A8A528A528A528A520451
:101A300021494A494A494A494A494A494A494A4937
:101A40004A494A494A494A494A494AD39CD39CD3BC
:101A50009CD39CD39CD39CD39CD39CD39C452904DE
:101A6000218A52494A18C618C6D39C518C518CD32E
:101A70009CD39CCF7B518C518C518C518C8E738A12
:101A8000528A5204210421494A55AD5DEF518C51CF
:101A90008C55AD55AD518C55AD518C518C8A52C77A
:101AA000390421C7398E7355ADDBDEDBDE8A52493E
:101AB0004A8A52CF7BD39CD39CD39CD39CD39CD3B8
:101AC0009CD39CD39CD39CD39CD39C9AD69AD69AD5
:101AD000D69AD69AD69AD696B596B58E73C7390445
:101AE000218A52494A518C18C6518C55AD518CCF20
:101AF0007B518C518C518C55AD518C8E73518C8E89
:101B000073494A04210421494A55AD9AD655AD5529
:101B1000AD518C518C55AD518C55AD518C8A52C7FD
:101B2000390421C73955ADDBDE18C655AD0421494E
:101B30004ACF7B18C6DBDEDBDEDBDEDBDEDBDEDBBB
:101B4000DEDBDEDBDEDBDEDBDEDBDE55ADD39C5158
:101B50008C55AD518C55AD55AD8E738E73C7390410
:101B6000218A52494A8E73D39C55AD518C55AD553F
:101B7000AD518C55AD8E73518C8E738A528E738A93
:101B800052494A04210421494A55AD9AD655AD51CE
:101B90008C8E738E738E738E738A528A528A52C75A
:101BA000390421C739DBDE18C655AD518C042149F3
:101BB0004AD39CDBDE9AD696B596B596B596B59681
:101BC000B596B596B596B596B596B555AD518C55B5
:101BD000AD518C55AD518C518C8E738E73C73904B9
:101BE00021494A8A52494AD39CD39C8E738E738E64
:101BF000738E738A528A528E738A528E738A5249B6
:101C00004A452904210421452955AD518C8E735133
:101C10008C8E73C739C739C739C739C739C739C770
:101C20003904210C63DBDE96B5518C518C042149BB
:101C30004AD39CDBDE96B555ADD39C55ADD39C55B0
:101C4000AD518CD39C518CD39CD39C55ADD39C511E
:101C50008C55AD518C55AD55AD8E738A52C7390434
:101C600021494A8A52494A0C638A528A528A528AC4
:101C700052494A494A494AC739452904210421049D
:101C8000210421042104214529518C8E73C739C7B1
:101C900039C7390421042104210421042104210429
:101CA0002104210C63DBDE55AD55AD518C04214977
:101CB0004AD39CDBDE55AD518CD39C518CD39C51C7
:101CC0008CD39CCF7BCF7B518C518C55AD518C5597
:101CD000AD518C55AD518C518C8E738A52C73904DD
:101CE00021494A8A52494A45294529452945290415
:101CF00021042104210421042104210421042104BC
:101D0000210421042104214529C7398A52C73904F5
:101D10002104210421042145294529452945294536
:101D2000294529518CDBDE55AD55AD518C04214937
:101D30004A518C18C6518C55ADD39C55ADD39C558A
:101D4000AD518CD39C518CD39CD39C518C55ADCF31
:101D50007BCF7B518C518C55AD8E738A52C7390421
:101D600021C7398A528A52494AC7390421042104B9
:101D70002104210421042104210421494A494A491A
:101D80004A494A494A494A494A518C518CD39C553F
:101D9000AD55ADD39C518C518CCF7B8A524529C710
:101DA000390C6318C6DBDE55AD518CCF7B0421495D
:101DB0004A518C18C655AD518CD39C518CD39C5133
:101DC0008CD39CCF7BCF7B518C518C518C518CCF41
:101DD0007BCF7B518C55AD518C0C63494AC739047C
:101DE00021C739518CDBDEDBDEDBDEDBDE18C6969D
:101DF000B555AD518C0C63C739494A0C63CF7B553F
:101E0000AD55AD18C618C69AD6DBDEDBDEDBDEDBF1
:101E1000DEDBDEDBDEDBDE9AD6D39C0C630421C77F
:101E200039CF7BDBDE18C655AD55AD8E7304214925
:101E30004ACF7B18C655ADD39C518C55AD518C55AE
:101E4000AD518CCF7BCF7B518CD39C518C518C5519
:101E5000AD55AD518C518C518C0C63494AC7390436
:101E600021C739DBDE18C655ADD39CD39CD39C5516
:101E7000ADD39CD39CC7398A52494ACF7B9AD65D51
:101E8000EF5DEFDBDE18C696B518C618C618C61883
:101E9000C618C618C618C618C68E738A520421C73B
:101EA00039518CDBDE96B5D39C518C8E730421495D
:101EB0004A8E7318C6518C55ADD39C518CD39C510E
:101EC0008C518C55AD518C55AD518CD39C55AD5129
:101ED0008C518C55AD518C8E738A52C739C73904D9
:101EE00021C739DBDE55AD518CD39C55AD55ADD3F3
:101EF0009CD39C55AD04218A52494AD39C5DEF186E
:101F0000C6518C55AD518C55ADD39C518C55ADD32C
:101F10009C55ADD39C518C518C0C63494A0421C70C
:101F200039518C5DEF55AD518C55AD8A5204214924
:101F30004A494A518C8E730C638A528A528A520CD7
:101F4000630C638E73CF7B518C518C0C630C630CD0
:101F5000630C630C638A52494AC739C739C73904CD
:101F600021C739DBDE55AD55AD55AD518C55AD5161
:101F70008C55AD0C630421494A494AD39C5DEF5509
:101F8000AD55AD55AD518CCF7B55AD55AD518C5147
:101F90008C518C55AD518C55AD8A52494A0421C79C
:101FA00039518C5DEF55AD55ADD39C8A5204218AD1
:101FB000520421C739C739494A494A494A494A4915
:101FC0004A494A494A8A528A528A528A52494A4955
:101FD0004AC739C739C739042104210421042145DE
:101FE00029C739DBDE518C55AD518C55AD96B551B5
:101FF0008CCF7B0C630421494A494AD39C5DEF5145
:102000008C55AD518CD39C55AD518C518CCF7B519F
:102010008C55ADD39C518C518C8A52494A0421C7AE
:1020200039518C5DEF518C55AD518C8A5204218A07
:1020300052C739042104210421042104210421046C
:102040002104210421C739C739494A042104210444
:1020500021042104210421452945294529494A49CA
:102060004A494ADBDE55ADD39C518C55AD518C5558
:10207000ADCF7B0C630421C739494AD39C5DEFD3B4
:102080009C518C55AD518C518CCF7B518CCF7B5159
:102090008C518C518C55AD518C8A52494A0421C7C0
:1020A00039518C5DEF55AD55AD518C8A5204218A62
:1020B00052C739C739C739C739C739C739C7394589
:1020C0002945294529042104210421494A0C630C8E
:1020D000638E73518CD39C518C518C518C518C4993
:1020E0004A0421DBDE55ADCF7BD39C518C55AD51DD
:1020F0008CCF7B0C63C7390421494AD39C5DEF55D3
:10210000AD518C518C518CCF7B518CCF7B518C55E8
:10211000ADCF7B518C518C55AD8A52494A0421C7B1
:1021200039518C5DEFD39C55AD55AD8A5204218A4F
:1021300052494A494A494A8A528A528A528A528A9A
:10214000528A528A52C739C739C7390C63518C96A3
:10215000B5DBDEDBDEDBDE9AD69AD69AD655AD8EBF
:10216000730421DBDE55AD55AD518CCF7B518C55C1
:10217000AD518C0C63C7390421494A518CDBDE1800
:10218000C6D39C518C55AD518C55ADCF7BCF7B5177
:102190008CCF7B518C55AD518C8A52C7390421C7E5
:1021A00039518CDBDE518C518C55AD8A520421495A
:1021B0004A55ADDBDEDBDE96B5518C0C638A5249A5
:1021C0004A494A494A494A494A8A520C6396B59A49
:1021D000D69AD618C696B555AD55ADD39C55AD49D2
:1021E0004A04215DEFD39CD39C55ADCF7B518C55D8
:1021F000ADD39C8E73494A0421494ACF7B9AD618A5
:10220000C655AD518C518CCF7B518CCF7BCF7B553C
:10221000AD518C55AD518CCF7B8A52C7394529C7FA
:1022200039518CDBDE55ADD39C518C8A5204214947
:102230004ADBDE518C518C96B5DBDEDBDEDBDEDB90
:10224000DEDBDEDBDED39CC7398A520C63DBDE9635
:10225000B555AD55AD518C55ADD39C55AD518C8E0A
:102260007304215DEFD39C55ADD39C55AD55AD5155
:102270008C55AD8E73494A0421C7398A5218C65D00
:10228000EF55AD55ADD39C518C55AD518C55ADCF5F
:102290007BCF7B518C55AD8E738A52C7394529C788
:1022A00039518CDBDE518C55AD518C8A5204214959
:1022B0004ADBDE518C518C55AD55AD518C518C554E
:1022C000AD518C518CCF7BC7398A520C63DBDE96C3
:1022D000B5D39C518C55AD518C55AD518C55AD8EAF
:1022E0007304215DEFD39C518CD39C55AD518C551B
:1022F000AD518C0C638A52042145298A5255AD5D3B
:10230000EF55AD55AD55AD518C518CCF7B518CCF28
:102310007BCF7B55AD518C8E73494A452945294960
:102320004A518C9AD655AD55AD518C8A52042149EB
:102330004ADBDE55AD55AD518C518C55AD55AD5187
:102340008C55AD518C0C63C739494A0C63DBDE55A3
:10235000ADD39C55AD518C55AD55ADCF7B55AD8AA8
:10236000520421DBDE55AD55AD55ADD39C518CD318
:102370009C55AD0C638A52042145298A52518C5DCB
:10238000EF18C655AD518C55AD518C518CD39C5125
:102390008C55AD518C55AD0C63494A0421452949F2
:1023A0004A518C9AD655AD518C55AD8A520421496B
:1023B0004A9AD655AD518C55AD55AD518C518C5571
:1023C000AD518C55AD0C63C739494A0C63DBDE96C1
:1023D000B555AD518C518C55ADD39C55AD518C8AB2
:1023E000520421DBDE18C6CF7BD39CCF7B55AD5585
:1023F000ADD39C0C638A5204210421494A8E739AFE
:10240000D618C655AD518CCF7BD39C518C518CD3F3
:102410009C518CD39C518C0C63C7390421452949AC
:102420004A518C9AD6518C55AD8A528A5204214910
:102430004A18C655AD55AD55AD518C55AD518C5161
:102440008C55AD55AD8A52C739494A0C63DBDE96CF
:10245000B5518C55AD55AD518C55AD518C55AD8A9E
:1024600052042118C6DBDE518CD39C55AD518CD360
:102470009C518C0C638A5204210421494A8A529649
:10248000B5DBDE55AD518C55AD518C55AD518C55EC
:10249000AD518C518C0C638A52C7390421C739491C
:1024A0004ACF7B55ADCF7B8A52C739C739C7394927
:1024B0004A55AD55AD518C55AD55AD518C55AD51BD
:1024C0008C518C55AD8A52C739C7390C63DBDE9607
:1024D000B555AD55AD518C55ADD39C55AD518C8A8C
:1024E00052042196B5DBDECF7B55AD518C518C511A
:1024F0008C55AD8E738A5204210421C7398A5251FA
:102500008C18C655AD518CCF7B0C630C638A524935
:102510004A494AC739C739C739C7390421C7394970
:102520004A8A52C739C739C739C739494A494A045B
:10253000218E738A52494A8A528A528A528A528A10
:10254000528A528A528A52C739C7390C63DBDE96E7
:10255000B5518C55AD55AD518C55ADCF7B55AD8A30
:10256000520421D39CDBDED39CCF7B55AD55AD51BE
:102570008C518C8E738A5204210421C7398A5249A6
:102580004A518C518C0C638A52494AC73904210440
:1025900021042104210421042104210421C73949F3
:1025A0004A8A52494A494A8A528A528A528A528AE5
:1025B00052042104210421042104210421042104C2
:1025C000210421042104210421C7390C63DBDE9698
:1025D000B5518C518CD39C55AD518C55AD518C8AD5
:1025E000520421CF7BDBDE55ADD39C55AD518C51D0
:1025F0008C55AD0C638A52042104214529494A496E
:102600004AC7394529452945290421042145294539
:1026100029452945294529452945294529C73949B4
:102620004A8A528A52494A494A494A494A494A4980
:102630004A494A494A494AC739C739C739C739C7D0
:1026400039C739C739C739C739C7390C63DBDE9693
:10265000B555AD55AD518CD39C55ADD39C55AD8A78
:102660005204218A525DEF518C55AD518C518C55DD
:10267000AD518C0C638A52042104214529494A49F1
:102680004A494AC739C739C739C739C739494A4991
:102690004A494A494A494A494A494A494A494A49A2
:1026A0004A8A528A52CF7BCF7BCF7BCF7BCF7BCFE7
:1026B0007BCF7BCF7BCF7BCF7BCF7BCF7BCF7BCFCA
:1026C0007BCF7BCF7BCF7BC7398A520C63DBDE9617
:1026D000B5518C518C55AD518C55AD518C8E738A42
:1026E000520421494A5DEF55AD518C518CCF7B513D
:1026F0008C55AD8E738A52452904214529C7390C62
:1027000063CF7BCF7BCF7BCF7BCF7BCF7BCF7BCF91
:102710007BCF7BCF7BCF7BCF7BCF7B518C518CD33F
:102720009CD39C55AD96B596B518C618C618C61854
:10273000C618C618C696B518C618C618C618C6183C
:10274000C618C618C6CF7BC7398A520C639AD6966C
:10275000B555AD55ADD39C55AD518C55AD8A520490
:10276000214529494A5DEF55AD518C55AD518C51EC
:102770008C518C0C638A52452904210421C739CF1E
:102780007B18C618C618C618C618C618C618C618A4
:10279000C618C618C618C618C618C618C618C69AC7
:1027A000D6DBDEDBDE5DEF5DEF5DEF5DEF5DEF5D08
:1027B000EF5DEF5DEF5DEF5DEF5DEFDBDEDBDE9AA2
:1027C000D69AD6D39C0C634529494A0C639AD6966F
:1027D000B5D39C55AD518C55AD55AD518C8A520435
:1027E000214529494A5DEF518C55ADCF7BD39C5192
:1027F0008C55AD0C638A52C739042104210421CFC2
:102800007B18C69AD65DEF5DEF5DEF5DEF5DEF5D26
:10281000EFDBDE5DEF5DEFDBDE5DEF5DEF5DEF5D7E
:10282000EF5DEF5DEFDBDEDBDE9AD618C696B518FE
:10283000C618C618C655AD18C618C696B518C61817
:10284000C696B5CF7B8A524529494A0C6318C6966D
:10285000B555AD518C55AD518C518C518C8A52046B
:1028600021C739494ADBDE55AD55AD518C55AD51C7
:102870008C518C0C638A52C739042104210421CF66
:102880007B18C69AD696B518C618C618C618C618A4
:10289000C655AD18C618C655AD18C618C618C69682
:1028A000B596B555ADD39CD39C518C518C55AD513B
:1028B0008C55AD518C518C518C55AD518C55AD51C1
:1028C0008C55AD8E738A524529C739494A18C6516D
:1028D0008C518C55AD518C8E738E738E738A5204CD
:1028E00021C739494A9AD6518C518C55AD518C55D6
:1028F000AD518C8E738A52C7390421042104210CF6
:102900006318C6DBDE96B5518C518C518C518C51BD
:102910008C518C55AD518C55AD55ADD39C518CD34C
:102920009C55AD55AD55ADD39CCF7BD39C518C55AB
:10293000AD55ADD39C518C55AD518C55AD55AD5564
:10294000AD518C8E738A524529C739494A96B5557F
:10295000AD55AD55AD518C8A528A528A52042145EB
:1029600029C739494A96B555AD518C518C55AD5151
:102970008C518C8E738A52C7390421042104214959
:102980004A18C6DBDE18C6518CD39C518C55AD510C
:102990008C55AD518CD39C55AD518C518CD39C55DD
:1029A000AD55AD518CD39C518CD39C518C518CCF57
:1029B0007B518CD39CD39C518C55AD518C55AD51D2
:1029C0008C55AD8E738A524529C739494ACF7BCF82
:1029D0007BCF7B8A528A528A528A528A520421457C
:1029E00029C739494AD39CD39C55AD518C518C5140
:1029F0008C8E730C638A52C739042104210421454B
:102A00002996B5DBDE9AD655AD55AD518C518C511A
:102A10008C518CCF7B518C518C55AD518CD39C51AA
:102A20008C55ADD39CCF7B518C518C55AD518C5175
:102A30008C55AD518CCF7BCF7B518CCF7BD39C51B0
:102A40008CD39C8E738A520421C739494AC73904F2
:102A500021042104218A528A528A528A520421C7AF
:102A600039494A494ACF7B0C630C630C630C630CF5
:102A7000630C638A528A52C7390421042104214518
:102A80002955ADDBDE9AD6518C518C55AD518C5504
:102A9000AD518C518C55AD518CCF7BCF7BD39CD31A
:102AA0009C518C55AD518C55ADD39C518C55AD512D
:102AB0008C518CCF7B518C518C518C55AD518CCF1E
:102AC0007BCF7B8E738A520421C7398A528A528AFD
:102AD00052494AC73904210421452904214529C7FF
:102AE00039494AC739C739C739C739C739C739C753
:102AF00039C739C739C739C73904210421042145E9
:102B000029518C9AD696B596B5518C518C55AD51AC
:102B10008C55ADCF7B518C518CD39CCF7BD39C51AA
:102B20008CD39CCF7B55AD518C518CCF7B518C512C
:102B30008C518C518C55AD518CCF7B518CD39CCF0B
:102B40007BCF7B8E738A520421C739494A494A494F
:102B50004A494A494A494A494A452945294529C7CE
:102B600039494AC739C73904210421042104210401
:102B700021042104210421042104210421042145EC
:102B800029518CD39C8E738E738E738E738E738E3D
:102B9000738E7355AD518C55AD55AD518C518CCF55
:102BA0007B518C518C518CCF7B518C518C55AD51BC
:102BB0008C55AD518C518C55AD518C518C518C51E3
:102BC0008CD39C8E738A520421C739494ACF7B55D6
:102BD000AD55AD55AD55ADD39C518C0C63494A49AB
:102BE0004A8A52C739C739452945294529452945C2
:102BF000294529452945294529452945294529C7E3
:102C0000398A52494AC739C739452945294529458D
:102C10002945298A528E738E73CF7B518CCF7BCFFF
:102C20007BCF7BCF7BCF7BCF7BCF7BCF7BCF7BCF54
:102C30007BCF7BCF7BCF7BCF7BCF7BCF7BCF7BCF44
:102C40007BCF7B0C638A520421C739494A55AD18A2
:102C5000C6DBDEDBDEDBDEDBDEDBDE18C655AD55DC
:102C6000AD518C8E730C638A52494AC739C739C734
:102C700039C739C739C739C739C739C739C73949D2
:102C80004A8A52494A494AC739C739C739C739C731
:102C900039C7394529494A8A528A528A528A528A00
:102CA000528A528A528A528A528A528A528A528A44
:102CB000528A528A528A528A528A528A528A528A34
:102CC000528A528A5204214529C739494A55ADDBF7
:102CD000DE55AD55AD518C18C69AD6DBDEDBDEDB9A
:102CE000DE18C655AD55AD55AD55AD55AD55AD55C7
:102CF000AD55AD518C518C518CCF7BCF7B8E730CED
:102D0000630C638A528A52494A494A494A494A49A4
:102D10004AC739C7394529452945294529452945FE
:102D20002945294529452945294529452945290474
:102D3000210421042104210421042104210421046B
:102D400021042104214529C739494A494A55ADDBA7
:102D5000DE55AD55AD55AD96B596B5518C55AD1802
:102D6000C6DBDEDBDEDBDEDBDEDBDEDBDEDBDEDBB3
:102D7000DEDBDEDBDEDBDEDBDE9AD69AD618C618BB
:102D8000C655AD55AD55AD55AD55AD518C494A8A79
:102D900052494AC739C739C739C739C739C739C787
:102DA00039C739C73945294529452945294529457F
:102DB00029452945294529452945294529452945A3
:102DC000294529C739C739494A494A494A55ADDBD6
:102DD000DE55AD518C55ADCF7BCF7B55ADD39C51DE
:102DE0008CCF7B55AD518C55AD518C55AD518C551B
:102DF000AD55AD518C55AD518C55AD55AD96B51801
:102E0000C6DBDEDBDEDBDE9AD618C6CF7BC73949F0
:102E10004A8A52494A494A494AC739C739C739C70C
:102E200039C739C739C739C739C739C739C739C7A2
:102E300039C739C739C739C739C739C739C739C792
:102E400039C739494A494A494A8A52494A55AD9A85
:102E5000D655AD55AD55ADD39C55AD518CD39C5188
:102E60008CD39C55AD518C518C55ADCF7BCF7B51C4
:102E70008C55ADCF7B518C518C518C55AD518C55AF
:102E8000AD518C55AD55AD55ADCF7B0C630421C70D
:102E9000398A52494A55ADDBDEDBDE55ADCF7B4981
:102EA0004A494A494A8A528A528A52494A494A49AF
:102EB0004A494A494A494A494A494A494A494A497A
:102EC0004A494A8A528A528A528A52494A55AD1808
:102ED000C655AD518C55ADCF7BCF7BD39C55AD51F5
:102EE0008C55AD55ADD39C518CCF7B55ADCF7B511F
:102EF0008CCF7BD39C518C55AD518C55AD518C559D
:102F0000AD518C55AD55AD55AD0C638A520421C7FA
:102F100039494A494ADBDE55AD55ADDBDEDBDEDB48
:102F2000DEDBDE96B58A528A52494A96B5DBDEDB95
:102F3000DEDBDEDBDEDBDEDBDEDBDE9AD618C69632
:102F4000B5D39CCF7B494A494A8A52494A55AD512B
:102F50008C0C630C630C630C630C630C630C630CD0
:102F6000630C630C630C630C630C630C630C630CE9
:102F7000630C630C630C630C630C630C630C630CD9
:102F8000630C630C630C630C638A528A52C7390466
:102F900021C739494ADBDE96B596B596B596B59602
:102FA000B596B596B50C638A52CF7BDBDE55AD5531
:102FB000AD55AD518C55AD518C55ADD39C55AD51E2
:102FC0008C55ADDBDED39C04218A52494A518C0CCE
:102FD00063C739C739C739C739C739C739C739C7C7
:102FE00039C739C739C739C739C739C739C739C7E1
:102FF00039C739C739C739C739C739C739C739C7D1
:1030000039C739C739C739C739C739C739C7390483
:10301000214529494A96B555AD96B596B5D39C0C30
:1030200063D39C518C0C63494A96B555AD518C5570
:10303000AD518C55AD55AD55AD518C55AD518C55EF
:10304000AD518C55AD8A5204218A52494AC7390480
:103050002104210421042104210421042104210448
:103060002104210421042104210421042104210438
:103070002104210421042104210421042104210428
:103080002104210421042104210421042104210418
:10309000214529494AC739494AC7398A520C630C24
:1030A000630C630C630C63494ADBDE55ADD39CD3E0
:1030B0009C55AD55ADD39CD39C55ADD39C55AD55CA
:1030C000AD518C518C8A5204218A528A52494AC786
:1030D00039C739C73945294529452945294529454C
:1030E0002945294529452945294529452945294570
:1030F0002945294529452945294529452945294560
:10310000294529452945294529452945294529454F
:10311000294529C7398A528A52C739C73904210437
:1031200021042104210421C7398A528A528A528AF1
:10313000528A528A528A528A528A528A528A528AAF
:10314000528A528A528A5204218A528A528A528A56
:10315000528A52494A494A494A494A494A494A4986
:103160004A494AC739C739C739C739C739C739C7BB
:1031700039C739C739C739C739C739C739C739C74F
:1031800039C739C739C739C739C739C739C739C73F
:1031900039C739C7398A528A528A528A52C739C7BF
:1031A00039C739C739C739C7398A528A5204210405
:1031B00021042104210421042104210421042104E7
:1031C0002104210421042104218A52C739C739C7A7
:1031D00039C739C739C739C739C739C739C739C7EF
:1031E00039C739C739C739C739C739C739C739C7DF
:1031F00039C739C739C739C739C739C739C739C7CF
:1032000039C739C739C739C739C739C739C739C7BE
:1032100039C739C739C739C739C739C739C739C7AE
:1032200039C739C739C739C739C739C739C739C79E
:1032300039C739C739C739C739C739C739C739C78E
:1032400039C739C739C739C739C73900000008003D
:10325000020100000304070000000000000000015C
:10326000020408102040800102040810200102041A
:1032700008102004040404040404040202020202EC
:103280000203030303030300000000250028002BB2
:103290000000000000240027002A000011241FBEA7
:1032A000CFEFD8E0DEBFCDBF11E0A0E0B1E0E8E0B5
:1032B000F6E402C005900D92A031B107D9F721E0E4
:1032C000A0E1B1E001C01D92AD31B207E1F70E946B
:1032D000D91F0C9402230C94000024E031E0FC017F
:1032E000318320830895FC013087C901907897FDD0
:1032F00008C0818773836283558344833783268321
:10330000089501979F6F0196818773836283558328
:1033100044833783268308950F931F93662321F1F7
:10332000882349F1819540FD41C030E0220F331FD1
:10333000F801E20FF31F45915491282F30E0429F8E
:10334000C001439F900D1124892F9927652F77275E
:10335000629FA001639F500D729F500D1124840F36
:10336000951F1F910F9108958111DDCF80E090E0AE
:103370001F910F91089540FF10C02195822F90E07A
:10338000880F991FF801E80FF91F85919491919585
:10339000819591091F910F91089530E0220F331FFD
:1033A000F801E20FF31F85919491E2CF219530E06F
:1033B000220F331FF801E20FF31F45915491282F7C
:1033C00030E0429FC001439F900D1124892F99271F
:1033D000652F7727629FA001639F500D729F500D4C
:1033E0001124840F951F9195819591091F910F913B
:1033F00008952F923F924F925F926F927F928F9299
:103400009F92AF92BF92CF92DF92EF92FF920F9373
:103410001F93CF93DF93CDB7DEB72D970FB6F894F8
:10342000DEBF0FBECDBF1C013B014A013A83298399
:103430001C830B83FE82ED82D886CF827C012B0118
:10344000C52EDD244C2D292F33272D87872F992733
:103450008C8781106AC0C0FE26C1413009F4DFC2EA
:10346000BFEFAFEF082F880F991F880F991F003209
:1034700008F040C248E050E01BC0212F30E0F901C5
:10348000F595E795F595E795F595E795E80FF91F1B
:10349000E855FE4EE491F0E0612F67708A01061B4B
:1034A000110902C0F595E7950A95E2F7E0FD08C01D
:1034B0001D851B0F1D87103200F3DD842D2D30E09C
:1034C000322F2227AF3F09F41FC280E090E0840D25
:1034D000951D41E0ED81FE814083EF81F8854082BA
:1034E00022193309E981FA813183208386199709EA
:1034F000EB81FC81918380832D960FB6F894DEBF1B
:103500000FBECDBFDF91CF911F910F91FF90EF9034
:10351000DF90CF90BF90AF909F908F907F906F90F3
:103520005F904F903F902F9008956B8712E0C116E7
:10353000D10408F4F3C024E0C216D10468F52220B7
:1035400009F438C2C0FC77C2C4019927880F991FBB
:10355000FC01E855F24F25913491B1017727269F60
:10356000A001279F500D1124E52FFF27232F33277C
:10357000269FA001279F500D369F500D11244E0FFE
:103580005F1F2301441A550A8855904FFC01A590EE
:10359000B490B194A194B10873E0C716D10408F0B7
:1035A000ACC181E0C816D10408F010C108EA1FE0E0
:1035B000282D4C2D61E0862D0E948C197101E80E9A
:1035C000F91E5A94C0FEFEC18194882D90E09C01A2
:1035D000220F331FBFEFF901E855F24F8591949107
:1035E0009A878987A1E008E010E0A13009F4FAC0C9
:1035F000AF3F09F430C18D85482F50E0BA01759571
:1036000067957595679575956795B13009F42FC1E4
:10361000803208F07DC1BF3F41F787709801281BB9
:103620003109CB2E16C08B2F90E0FB01B4E08B9FAD
:10363000E00DF11D1124E855FE4EE491F0E0022E5C
:1036400002C0F595E7950A94E2F7E0FD16C0EA0C92
:10365000FB1C8F2D992787FD9A95841795070CF4ED
:1036600042C1BC85BA0FBC87B032E8F2BC2DDC8405
:103670008D2D90E0B13009F426C120E030E02E0D10
:103680003F1D982F8827AF3F09F444C01A8619863A
:1036900069857A85860F971FED81FE811082EF8103
:1036A000F885E0821DCFC1108DC041E0A1E0022F5E
:1036B000359527953595279535952795003208F04E
:1036C00014C1077068E070E0601B71091C8514C0AC
:1036D000812F90E0F90154E0159FE00DF11D1124B8
:1036E000E855FE4EE491F0E0062E02C0F595E79510
:1036F0000A94E2F7E0FDC1CF140F103248F3812F96
:1037000090E020E030E02E0D3F1D982F8827AF3F3E
:1037100009F0BCCF40E051E0BA01BCCF08EA1DE09F
:10372000282D4C2D61E0822D0E948C192301480E1A
:10373000591E7101FA94C0FEF6C0882D8195282F7C
:1037400030E0A901440F551F5A874987FA01E8550F
:10375000F04FA590B49096012150310922303105E7
:1037600008F037C1DB84B1E0DD2009F460C190E0EE
:10377000880F991FFC01E855F04F25913491B30152
:103780007727269FA001279F500D1124452F5527ED
:10379000232F3327269FF001279FF00D369FF00D32
:1037A00011244E0F5F1FE40EF51E8855924FFC0149
:1037B0008591949166277727681B790B7A876987AB
:1037C000AFEF11CF4FEFAFEF022F72CF8C2D817083
:1037D000DB84BFEFDD2009F426C1811118C1C401CB
:1037E0009927B9C07C85272F30E0852D992787FD43
:1037F0009A95821793070CF0FECE5D855B0F5D876F
:10380000503208F0C6C06C85603208F0C2C0452F47
:10381000852F90E0FC01F595E795F595E795F595F1
:10382000E795220F331F220F331FE20FF31FE855D6
:10383000FE4E249130E04770B801641B710902C04C
:10384000359527956A95E2F720FDA5C089859A856B
:10385000480E591ECACE4C85242F30E0852D99275D
:1038600087FD9A95821793070CF4C5CEC6CF803298
:1038700068F587706801C81AD10802C0EA0CFB1C01
:103880008F2D992787FD9A95841795070CF0ADCE5B
:103890009C859A0F9C87903208F0E9CE392F892FAA
:1038A00090E0FB0124E0329FE00DF11D1124E8556A
:1038B000FE4EE491F0E00C2C02C0F595E7950A94D9
:1038C000E2F7E0FFDBCF20E031E0D9CE8F2D992762
:1038D00087FD9A95841795070CF087CEDC84DA0E65
:1038E0008D2D90E0C7CEBC2D80CE840F90E020E0DF
:1038F00030E0C5CEB20FBD87E0CD93E0C916D1044C
:1039000009F454CEBFEF6FCE339580E090E0DFCD69
:10391000BF3F09F06ACE8F2D992787FD9A958417AE
:103920009507E4F662CEC4019927BC01660F771FA4
:103930007A876987FB01E855F04FA590B49096010E
:10394000215031092230310508F052C0DB84B1E04A
:10395000DD2009F495C0880F991FFC01E855F04F50
:1039600025913491B3017727269FA001279F500D01
:103970001124452F5527232F3327269FF001279FFA
:10398000F00D369FF00D11244E0F5F1FE41AF50A5B
:103990000CCF852F90E0982F8827BF3F09F473C084
:1039A00020E030E0280F391FA13009F08ECD80E0F3
:1039B00091E08DCDC0FE2EC0882D819590E0880FBE
:1039C000991FE2CD9924A401440F551FBFEFFA01BE
:1039D00003CE08EA1FE0282D4C2D61E0862D0E94C1
:1039E0008C19E80EF91E5A94B1E0E985FA85F4CDF8
:1039F00008EA1FE0282D4C2D61E0862D0E948C19CD
:103A0000E80EF91E5A94B1E0E985FA85E5CD882DD6
:103A10008195ADCEC4019927880F991FB5CDB1E02E
:103A2000A1E0082F20CD882349F1882D819590E0D1
:103A3000880F991FBACE882D819590E0880F991F25
:103A4000FC01E855F24F45915491B1017727469F0B
:103A50009001479F300D1124E32FFF27252F332797
:103A6000269FA001279F500D369F500D11249F01C6
:103A7000240F351F2301420E531E86CDC401992702
:103A8000880F991F92CE20E031E08CCF4F925F9249
:103A90006F927F928F929F92AF92BF92CF92DF925E
:103AA000EF92FF920F931F93CF93DF9300D000D03C
:103AB000CDB7DEB75C013A0147012601FB01EE0FED
:103AC000FF1FE859FF4F45915491D50116968D91EE
:103AD0009C911797480F591FCA0199278230910569
:103AE00009F48BC008F483C08E3F910509F482C0AD
:103AF0008F3F910509F481C05370F5016481758190
:103B0000680179018E010F5F1F4F9E012D5F3F4FAE
:103B1000828193810E94F919D50116962D913C91CD
:103B200017972115310509F06BC089819A81189684
:103B30001C91113009F415C1113008F41FC1123065
:103B400009F416C1133029F52B813C81D501199652
:103B5000EC91E195F0E0E855F34FE491B90137FDC0
:103B600053C1F0E06E9FA0016F9F500D1124452FAF
:103B70005527A72FBB27AE9FB001AF9F700DBE9FEB
:103B8000700D1124460F571F37FD36C19A01821B55
:103B9000930B8B3B91050CF075C020E4D3012C9363
:103BA000880F991FFC01E855FC4F25913491F401D1
:103BB0003183208388559E4FFC0185919491D201D9
:103BC0008D939C930F900F900F900F90DF91CF915A
:103BD0001F910F91FF90EF90DF90CF90BF90AF902B
:103BE0009F908F907F906F905F904F900895019776
:103BF00009F082CF415051097FCF4F5F5F4F7CCF9B
:103C00002115B2E03B0709F4A2C0D50118961C911A
:103C1000113009F4EAC008F4E2C0123009F472C0AD
:103C2000133009F0D9C069817A81D5011996EC91D8
:103C3000E195F0E0E855F44FE491AB0177FDF4C075
:103C4000F0E04E9FD0014F9FB00D1124AB2FBB274A
:103C5000452F55274E9FC0014F9F900D5E9F900DA1
:103C600011248A0F9B1F77FDD9C02115B1E03B07B6
:103C700009F0A9C02B813C81820F931F8B3B9105DA
:103C80000CF48BCFF401118210828B5B9109959516
:103C90008795959587958F3F910519F114F1969524
:103CA000879596958795969587958F3F910541F0D5
:103CB00038F0E7EAFAE0E491E6EAF7E0259134919A
:103CC000FC01E855F64FE491D301EC93880F991F5E
:103CD000FC01E855FA4F85919491F201918380831C
:103CE00071CFFC01E855F54FE491D301EC93FC0151
:103CF000EE0FFF1FE855F84F85919491F2019183E3
:103D0000808360CF69817A81D5011996EC91F0E0CA
:103D1000E855F44FE491AB0177FD8BC0F0E04E9F86
:103D2000D0014F9FB00D1124AB2FBB27452F552736
:103D30004E9FC0014F9F900D5E9F900D11248A0FE2
:103D40009B1F77FD6EC09195819591098ECF8981DA
:103D50009A81919581959109F5011085113009F0AD
:103D6000EBCE2B813C81D5011996EC91E1950BC0EE
:103D70002B813C81D5011996EC91ECCE2B813C81B5
:103D8000D5011996EC91F0E0E855F34FE491B901B3
:103D900037FD3FC0F0E06E9FA0016F9F500D1124D2
:103DA000452F5527A72FBB27AE9FB001AF9F700DA2
:103DB000BE9F700D1124460F571F37FD21C09A0179
:103DC000820F931FE6CE2115334009F0B2CE2B812E
:103DD0003C81821B930BDDCE80E090E046CF698171
:103DE0007A81D5011996EC9124CF69817A81D50128
:103DF0001996EC91E1958BCF9A0120953095C7CE1D
:103E00009A0120953095DCCF66277727621B730BCC
:103E1000A8CE66277727621B730BBCCF8095909541
:103E200024CF809590958FCF44275527461B570B5D
:103E300007CF44275527461B570B70CFCF93DF93EF
:103E4000EC010E946D198CE091E099838883DF91E9
:103E5000CF9108951F93CF93DF93EC012196FC013E
:103E60001491112349F129989E012F5F3F4FFE01C4
:103E700084918EBD00000DB407FEFDCF299ACE01BE
:103E80000296F9012491322F30782F77EC01C20F7E
:103E9000D11DFC01EC17FD0751F084918EBD00008F
:103EA0000DB407FEFDCF3196EC17FD07B1F73111C8
:103EB00007C011501111D7CFDF91CF911F910895F5
:103EC00021966491F5E06F9FB001112480E090E0AD
:103ED0000E94BB211150EECF61E08AE00E945B227C
:103EE00061E089E00E945B220E94C6228CB58F7D32
:103EF0008CBD8CB5837F8CBD8CB58C7F8CBD8DB516
:103F000081608DBD61E088E00E945B2261E088E015
:103F10000E94972264EF71E080E090E00E94BB2154
:103F200060E088E00E94972264EF71E080E090E01A
:103F30000E94BB2161E088E00E94972264EF71E05B
:103F400080E090E00E94BB2180911B01882341F01A
:103F50009FB7F89480911B018130D9F0909319019B
:103F600080E58CBD81E08DBD2A9888E292E10E94B7
:103F70002A1F2A9A80911B01811101C008959FB7C1
:103F8000F89480911B01813079F0809119018FBFE5
:103F900008958DB3809319012DB380911A018095F6
:103FA00082238DBB9FBFDCCF809119018DBB9FBF4A
:103FB0000895CF93DF93CDB7DEB761970FB6F8942E
:103FC000DEBF0FBECDBF0E94F7210E946C1F2A9852
:103FD00029988AE28EBD00000DB407FEFDCF299A14
:103FE0001EBC00000DB407FEFDCF1EBC00000DB4CA
:103FF00007FEFDCF1EBC00000DB407FEFDCF8FE70E
:104000008EBD00000DB407FEFDCF29988BE28EBD5A
:1040100000000DB407FEFDCF299A1EBC00000DB4B0
:1040200007FEFDCF1EBC00000DB407FEFDCF299892
:104030008CE28EBD00000DB407FEFDCF299A80E012
:1040400090E500000DB407FEFDCF1EBC00000DB4CE
:1040500007FEFDCF1EBC0197A1F70DB407FEFDCFF3
:10406000CE0101960E941E1F612C712C22242394E4
:104070008AE2382E9FE7B92E2BE2422E30E4532EEF
:104080004DE6A42E930140E057E060E077E1CE01D9
:1040900001960E94731980911B01882349F02FB764
:1040A000F89480911B01813009F4DAC02093190142
:1040B00020E52CBD2DBC2A9829983EBC00000DB4EB
:1040C00007FEFDCF299A1EBC00000DB407FEFDCFF0
:1040D0001EBC00000DB407FEFDCF1EBC00000DB4D9
:1040E00007FEFDCFBEBC00000DB407FEFDCF299832
:1040F0004EBC00000DB407FEFDCF299A1EBC000087
:104100000DB407FEFDCF1EBC00000DB407FEFDCFB1
:1041100029988CE28EBD00000DB407FEFDCF299AD0
:10412000812C912CCE010B966C0102967C018E01A4
:10413000005F1F4F9E012F5E3F4FAE01415F5F4FFB
:10414000B4010C970E94461DAF85752D7A1B09F4AA
:1041500073C080E000000DB407FEFDCFBEBC0000C0
:104160000DB407FEFDCF1EBC8F5F7813F3CFAF8574
:10417000AA0F288930E03595279535952795220F88
:10418000331FAA2391F160E08D859E85FC01F69591
:10419000E795F695E795F695E795E078FF71E20FDC
:1041A000F31FE55BFD4E45915491EB85FC858E0F29
:1041B0009F1F9E878D878989882339F04115510576
:1041C000C1F1569547954F7E5B77852F00000DB462
:1041D00007FEFDCF8EBD00000DB407FEFDCF4EBD26
:1041E0006F5F6A1788F2772371F080E000000DB4EA
:1041F00007FEFDCFAEBC00000DB407FEFDCF1EBC18
:104200008F5F7813F3CF9FEF891A990A20EA8216FD
:10421000910409F087CF80911B0181112CC02A9A4B
:10422000C3010A96813024E092070CF094503C01BF
:1042300029CF40E080E0CACFAA0F288930E0359529
:10424000279535952795220F331FA1119CCF9FEFFE
:10425000891A990A20EA8216910409F063CFDBCF0C
:104260008DB3809319018DB390911A019095892394
:104270008DBB2FBF1DCF8FB7F89490911B0191304C
:1042800021F0809119018FBFCACF909119019DBB78
:104290008FBFC5CF0E94FD221F920F920FB60F92C3
:1042A00011242F933F938F939F93AF93BF9380914C
:1042B000110190911201A0911301B091140130915C
:1042C000100123E0230F2D3720F40196A11DB11D0D
:1042D00005C026E8230F0296A11DB11D20931001F1
:1042E0008093110190931201A0931301B0931401D4
:1042F0008091150190911601A0911701B0911801BC
:104300000196A11DB11D8093150190931601A093F4
:104310001701B0931801BF91AF919F918F913F9179
:104320002F910F900FBE0F901F9018953FB7F894E4
:104330008091150190911601A0911701B09118017B
:1043400026B5A89B05C02F3F19F00196A11DB11DF0
:104350003FBFBA2FA92F982F8827820F911DA11D2B
:10436000B11DBC01CD0142E0660F771F881F991F68
:104370004A95D1F708958F929F92AF92BF92CF92B4
:10438000DF92EF92FF926B017C010E9496214B011C
:104390005C01C114D104E104F10401F10E94FC228A
:1043A0000E949621DC01CB0188199909AA09BB0951
:1043B000883E9340A105B10560F321E0C21AD108FF
:1043C000E108F10888EE880E83E0981EA11CB11C5C
:1043D000C114D104E104F10419F7DBCFFF90EF9091
:1043E000DF90CF90BF90AF909F908F90089578947A
:1043F00084B5826084BD84B5816084BD85B58260EA
:1044000085BD85B5816085BDEEE6F0E08081816087
:104410008083E1E8F0E01082808182608083808187
:1044200081608083E0E8F0E0808181608083E1EB5F
:10443000F0E0808184608083E0EBF0E08081816047
:104440008083EAE7F0E080818460808380818260FD
:1044500080838081816080838081806880831092E6
:10446000C1000895833081F028F4813099F08230C2
:10447000A1F008958730A9F08830B9F08430D1F4E4
:10448000809180008F7D03C0809180008F77809322
:104490008000089584B58F7702C084B58F7D84BD78
:1044A00008958091B0008F7703C08091B0008F7D18
:1044B0008093B0000895CF93DF9390E0FC01E15A20
:1044C000FD4C2491FC01ED58FD4C8491882361F151
:1044D00090E0880F991FFC01EF56FD4CC591D491D7
:1044E000FC01E957FD4CA591B491611109C09FB73A
:1044F000F8948881209582238883EC912E230BC029
:10450000623061F49FB7F8948881322F309583230D
:104510008883EC912E2B2C939FBF06C08FB7F89405
:10452000E8812E2B28838FBFDF91CF9108951F93B1
:10453000CF93DF93282F30E0F901E55BFD4C8491A8
:10454000F901E15AFD4CD491F901ED58FD4CC491AB
:10455000CC23C1F0162F81110E943222EC2FF0E003
:10456000EE0FFF1FE957FD4CA591B4919FB7F8944A
:10457000111104C08C91D095D82302C0EC91DE2B90
:10458000DC939FBFDF91CF911F910895CF93CFB759
:10459000F89480911C01811127C0EDE7F2E384912A
:1045A000E9E6F2E39491E82FF0E0EE0FFF1FEF56FB
:1045B000FD4CA591B491EC91E92321F461E08AE0EE
:1045C0000E94972261E08AE00E945B228CB58061A4
:1045D0008CBD8CB580648CBD61E08DE00E945B2257
:1045E00061E08BE00E945B2280911C018F5F8093D1
:1045F0001C01CFBFCF910895089581E090E0F89419
:084600000C940223F894FFCF93
:10460800000000004A214A21000000007319461DDD
:00000001FF
